{
  "_format": "hh-sol-artifact-1",
  "contractName": "SebuMaster",
  "sourceName": "contracts/SebuMaster.sol",
  "abi": [
    {
      "inputs": [
        {
          "internalType": "uint256",
          "name": "_fee",
          "type": "uint256"
        },
        {
          "internalType": "address",
          "name": "_investmentToken",
          "type": "address"
        },
        {
          "internalType": "address",
          "name": "_guardian",
          "type": "address"
        },
        {
          "internalType": "address",
          "name": "_shepard",
          "type": "address"
        }
      ],
      "stateMutability": "nonpayable",
      "type": "constructor"
    },
    {
      "anonymous": false,
      "inputs": [
        {
          "indexed": false,
          "internalType": "address",
          "name": "_investor",
          "type": "address"
        },
        {
          "indexed": false,
          "internalType": "uint256",
          "name": "_round",
          "type": "uint256"
        },
        {
          "indexed": false,
          "internalType": "uint256",
          "name": "_amt",
          "type": "uint256"
        }
      ],
      "name": "Investment",
      "type": "event"
    },
    {
      "anonymous": false,
      "inputs": [
        {
          "indexed": false,
          "internalType": "address",
          "name": "_founder",
          "type": "address"
        },
        {
          "indexed": false,
          "internalType": "address",
          "name": "_tokenToPitch",
          "type": "address"
        },
        {
          "indexed": false,
          "internalType": "uint256",
          "name": "pitchId",
          "type": "uint256"
        },
        {
          "indexed": false,
          "internalType": "uint256",
          "name": "_round",
          "type": "uint256"
        },
        {
          "indexed": false,
          "internalType": "uint256",
          "name": "_slot",
          "type": "uint256"
        },
        {
          "indexed": false,
          "internalType": "uint256",
          "name": "feeAmount",
          "type": "uint256"
        }
      ],
      "name": "NewPitch",
      "type": "event"
    },
    {
      "anonymous": false,
      "inputs": [
        {
          "indexed": false,
          "internalType": "address",
          "name": "_founder",
          "type": "address"
        },
        {
          "indexed": false,
          "internalType": "address",
          "name": "_tokenToPitch",
          "type": "address"
        },
        {
          "indexed": false,
          "internalType": "uint256",
          "name": "_slot",
          "type": "uint256"
        }
      ],
      "name": "NewPitchQueued",
      "type": "event"
    },
    {
      "anonymous": false,
      "inputs": [
        {
          "indexed": false,
          "internalType": "address",
          "name": "_founder",
          "type": "address"
        },
        {
          "indexed": false,
          "internalType": "address",
          "name": "_tokenToPitch",
          "type": "address"
        },
        {
          "indexed": false,
          "internalType": "uint256",
          "name": "_slot",
          "type": "uint256"
        }
      ],
      "name": "NewPitchUp",
      "type": "event"
    },
    {
      "anonymous": false,
      "inputs": [
        {
          "indexed": false,
          "internalType": "address",
          "name": "_token",
          "type": "address"
        },
        {
          "indexed": false,
          "internalType": "uint256",
          "name": "_slot",
          "type": "uint256"
        },
        {
          "indexed": false,
          "internalType": "uint256",
          "name": "_ranking",
          "type": "uint256"
        }
      ],
      "name": "NewTopSlot",
      "type": "event"
    },
    {
      "anonymous": false,
      "inputs": [
        {
          "indexed": false,
          "internalType": "uint256",
          "name": "_round",
          "type": "uint256"
        },
        {
          "indexed": false,
          "internalType": "uint256",
          "name": "_slot",
          "type": "uint256"
        }
      ],
      "name": "PitchInvalidated",
      "type": "event"
    },
    {
      "anonymous": false,
      "inputs": [
        {
          "indexed": false,
          "internalType": "uint256",
          "name": "_round",
          "type": "uint256"
        },
        {
          "indexed": false,
          "internalType": "uint256",
          "name": "_slot",
          "type": "uint256"
        },
        {
          "indexed": false,
          "internalType": "uint256",
          "name": "_ranking",
          "type": "uint256"
        }
      ],
      "name": "RankingSet",
      "type": "event"
    },
    {
      "anonymous": false,
      "inputs": [
        {
          "indexed": false,
          "internalType": "uint256",
          "name": "_currentRound",
          "type": "uint256"
        },
        {
          "indexed": false,
          "internalType": "uint256",
          "name": "_sendAmt",
          "type": "uint256"
        }
      ],
      "name": "RoundClosed",
      "type": "event"
    },
    {
      "inputs": [],
      "name": "closeRound",
      "outputs": [],
      "stateMutability": "nonpayable",
      "type": "function"
    },
    {
      "inputs": [],
      "name": "currentRound",
      "outputs": [
        {
          "internalType": "uint256",
          "name": "",
          "type": "uint256"
        }
      ],
      "stateMutability": "view",
      "type": "function"
    },
    {
      "inputs": [],
      "name": "currentSlot",
      "outputs": [
        {
          "internalType": "uint256",
          "name": "",
          "type": "uint256"
        }
      ],
      "stateMutability": "view",
      "type": "function"
    },
    {
      "inputs": [],
      "name": "fee",
      "outputs": [
        {
          "internalType": "uint256",
          "name": "",
          "type": "uint256"
        }
      ],
      "stateMutability": "view",
      "type": "function"
    },
    {
      "inputs": [
        {
          "internalType": "uint256",
          "name": "",
          "type": "uint256"
        }
      ],
      "name": "founders",
      "outputs": [
        {
          "internalType": "address",
          "name": "",
          "type": "address"
        }
      ],
      "stateMutability": "view",
      "type": "function"
    },
    {
      "inputs": [],
      "name": "fundingContract",
      "outputs": [
        {
          "internalType": "address",
          "name": "",
          "type": "address"
        }
      ],
      "stateMutability": "view",
      "type": "function"
    },
    {
      "inputs": [
        {
          "internalType": "uint256",
          "name": "_round",
          "type": "uint256"
        },
        {
          "internalType": "address",
          "name": "_founder",
          "type": "address"
        }
      ],
      "name": "getFounderToSlotByRound",
      "outputs": [
        {
          "internalType": "uint256",
          "name": "_slot",
          "type": "uint256"
        }
      ],
      "stateMutability": "view",
      "type": "function"
    },
    {
      "inputs": [],
      "name": "getFounders",
      "outputs": [
        {
          "internalType": "address[]",
          "name": "",
          "type": "address[]"
        }
      ],
      "stateMutability": "view",
      "type": "function"
    },
    {
      "inputs": [
        {
          "internalType": "uint256",
          "name": "_round",
          "type": "uint256"
        },
        {
          "internalType": "address",
          "name": "_lp",
          "type": "address"
        }
      ],
      "name": "getInvestmentShare",
      "outputs": [
        {
          "internalType": "uint256",
          "name": "_share",
          "type": "uint256"
        }
      ],
      "stateMutability": "view",
      "type": "function"
    },
    {
      "inputs": [],
      "name": "getQueueLength",
      "outputs": [
        {
          "internalType": "uint256",
          "name": "",
          "type": "uint256"
        }
      ],
      "stateMutability": "view",
      "type": "function"
    },
    {
      "inputs": [
        {
          "internalType": "uint256",
          "name": "_round",
          "type": "uint256"
        }
      ],
      "name": "getRoundInvestors",
      "outputs": [
        {
          "internalType": "address[]",
          "name": "",
          "type": "address[]"
        }
      ],
      "stateMutability": "view",
      "type": "function"
    },
    {
      "inputs": [
        {
          "internalType": "uint256",
          "name": "_round",
          "type": "uint256"
        }
      ],
      "name": "getRoundToFees",
      "outputs": [
        {
          "internalType": "uint256",
          "name": "_amount",
          "type": "uint256"
        }
      ],
      "stateMutability": "view",
      "type": "function"
    },
    {
      "inputs": [
        {
          "internalType": "uint256",
          "name": "_round",
          "type": "uint256"
        },
        {
          "internalType": "address",
          "name": "_lp",
          "type": "address"
        }
      ],
      "name": "getRoundToInvestment",
      "outputs": [
        {
          "internalType": "uint256",
          "name": "_amount",
          "type": "uint256"
        }
      ],
      "stateMutability": "view",
      "type": "function"
    },
    {
      "inputs": [
        {
          "internalType": "uint256",
          "name": "_round",
          "type": "uint256"
        }
      ],
      "name": "getRoundToTotalInvested",
      "outputs": [
        {
          "internalType": "uint256",
          "name": "_amount",
          "type": "uint256"
        }
      ],
      "stateMutability": "view",
      "type": "function"
    },
    {
      "inputs": [
        {
          "internalType": "uint256",
          "name": "_round",
          "type": "uint256"
        }
      ],
      "name": "getRoundTopRankingSlot",
      "outputs": [
        {
          "internalType": "uint256",
          "name": "_slot",
          "type": "uint256"
        }
      ],
      "stateMutability": "view",
      "type": "function"
    },
    {
      "inputs": [
        {
          "internalType": "uint256",
          "name": "_slot",
          "type": "uint256"
        }
      ],
      "name": "getSlotToRanking",
      "outputs": [
        {
          "internalType": "uint256",
          "name": "_ranking",
          "type": "uint256"
        }
      ],
      "stateMutability": "view",
      "type": "function"
    },
    {
      "inputs": [
        {
          "internalType": "uint256",
          "name": "_slot",
          "type": "uint256"
        }
      ],
      "name": "getSlotToToken",
      "outputs": [
        {
          "internalType": "address",
          "name": "_token",
          "type": "address"
        }
      ],
      "stateMutability": "view",
      "type": "function"
    },
    {
      "inputs": [],
      "name": "guardian",
      "outputs": [
        {
          "internalType": "address",
          "name": "",
          "type": "address"
        }
      ],
      "stateMutability": "view",
      "type": "function"
    },
    {
      "inputs": [
        {
          "internalType": "address",
          "name": "_portfolio",
          "type": "address"
        },
        {
          "internalType": "address",
          "name": "_funding",
          "type": "address"
        }
      ],
      "name": "init",
      "outputs": [],
      "stateMutability": "nonpayable",
      "type": "function"
    },
    {
      "inputs": [
        {
          "internalType": "uint256",
          "name": "_round",
          "type": "uint256"
        },
        {
          "internalType": "uint256",
          "name": "_slot",
          "type": "uint256"
        },
        {
          "internalType": "uint256",
          "name": "_newTopSlot",
          "type": "uint256"
        }
      ],
      "name": "invalidatePitch",
      "outputs": [],
      "stateMutability": "nonpayable",
      "type": "function"
    },
    {
      "inputs": [
        {
          "internalType": "uint256",
          "name": "_amount",
          "type": "uint256"
        }
      ],
      "name": "invest",
      "outputs": [],
      "stateMutability": "nonpayable",
      "type": "function"
    },
    {
      "inputs": [],
      "name": "investmentToken",
      "outputs": [
        {
          "internalType": "address",
          "name": "",
          "type": "address"
        }
      ],
      "stateMutability": "view",
      "type": "function"
    },
    {
      "inputs": [
        {
          "internalType": "address",
          "name": "_tokenToPitch",
          "type": "address"
        }
      ],
      "name": "pitch",
      "outputs": [],
      "stateMutability": "nonpayable",
      "type": "function"
    },
    {
      "inputs": [],
      "name": "pitchId",
      "outputs": [
        {
          "internalType": "uint256",
          "name": "",
          "type": "uint256"
        }
      ],
      "stateMutability": "view",
      "type": "function"
    },
    {
      "inputs": [],
      "name": "portfolio",
      "outputs": [
        {
          "internalType": "contract IPortfolio",
          "name": "",
          "type": "address"
        }
      ],
      "stateMutability": "view",
      "type": "function"
    },
    {
      "inputs": [
        {
          "internalType": "uint256",
          "name": "_score",
          "type": "uint256"
        }
      ],
      "name": "setRanking",
      "outputs": [],
      "stateMutability": "nonpayable",
      "type": "function"
    },
    {
      "inputs": [],
      "name": "shepard",
      "outputs": [
        {
          "internalType": "address",
          "name": "",
          "type": "address"
        }
      ],
      "stateMutability": "view",
      "type": "function"
    }
  ],
  "bytecode": "0x608060405234801561001057600080fd5b506040516113fa3803806113fa83398101604081905261002f916100d9565b600693909355600180546001600160a01b03199081166001600160a01b039384169081178355600280548316968516969096179095556010805482169490931693909317909155600481905560058190556003805491820181556000527fc2575a0e9e593c00f959f8c92f12db2869c3395a3b0502d05e2516446f71f85b0180549091169091179055610126565b80516001600160a01b03811681146100d457600080fd5b919050565b600080600080608085870312156100ef57600080fd5b845193506100ff602086016100bd565b925061010d604086016100bd565b915061011b606086016100bd565b905092959194509250565b6112c5806101356000396000f3fe608060405234801561001057600080fd5b50600436106101a85760003560e01c806385d065a8116100f9578063b8f7700511610097578063d8e75f6211610071578063d8e75f62146103f8578063ddca3f431461040b578063e278fe6f14610414578063f09a40161461041c57600080fd5b8063b8f77005146103bd578063d3bc5156146103c5578063d5204e8b146103e557600080fd5b8063a25f369b116100d3578063a25f369b1461036f578063a3e9a84f14610382578063b73cdd19146103a2578063b7948cbb146103aa57600080fd5b806385d065a8146103405780638a19c8bc14610353578063995df76c1461035c57600080fd5b80633359632e116101665780634cadabdc116101405780634cadabdc146102a1578063528eb156146102c15780636c2acb24146102d457806379f101f21461030a57600080fd5b80633359632e1461027c5780633526c0f814610285578063452a93201461028e57600080fd5b80622703a2146101ad57806304a6a6a9146101dd5780630e33ea631461020657806316ede01614610234578063240fd0ad146102475780632afcf48014610267575b600080fd5b6010546101c0906001600160a01b031681565b6040516001600160a01b0390911681526020015b60405180910390f35b6101c06101eb366004610f8a565b6000908152600860205260409020546001600160a01b031690565b610226610214366004610f8a565b6000908152600a602052604090205490565b6040519081526020016101d4565b6011546101c0906001600160a01b031681565b610226610255366004610f8a565b6000908152600b602052604090205490565b61027a610275366004610f8a565b61042f565b005b61022660055481565b61022660075481565b6001546101c0906001600160a01b031681565b6102b46102af366004610f8a565b6105c3565b6040516101d49190610fa3565b6102266102cf36600461100b565b61062f565b6102266102e236600461100b565b6000918252600f602090815260408084206001600160a01b0393909316845291905290205490565b61022661031836600461100b565b6000918252600e602090815260408084206001600160a01b0393909316845291905290205490565b61027a61034e366004611037565b6106ad565b61022660045481565b6000546101c0906001600160a01b031681565b6002546101c0906001600160a01b031681565b610226610390366004610f8a565b6000908152600d602052604090205490565b6102b4610796565b61027a6103b8366004610f8a565b6107f8565b61022661095f565b6102266103d3366004610f8a565b6000908152600c602052604090205490565b61027a6103f3366004611063565b610976565b6101c0610406366004610f8a565b610c92565b61022660065481565b61027a610cbc565b61027a61042a36600461107e565b610f45565b6010546040516323b872dd60e01b81526001600160a01b03909116906323b872dd90610463903390309086906004016110a8565b6020604051808303816000875af1158015610482573d6000803e3d6000fd5b505050506040513d601f19601f820116820180604052508101906104a691906110cc565b6104af57600080fd5b6004546000908152600c60205260409020546104cc90829061110b565b600480546000908152600c602090815260408083209490945591548152600f82528281203382529091529081205490036105325760045460009081526009602090815260408220805460018101825590835291200180546001600160a01b031916331790555b6004546000908152600f6020908152604080832033845290915290205461055a90829061110b565b600480546000908152600f6020908152604080832033808552908352928190209490945591548351918252918101919091529081018290527f8514357b17ccbde354811f827b94585a7ab01b4034aa86a807b7cc2c100b7be8906060015b60405180910390a150565b60008181526009602090815260409182902080548351818402810184019094528084526060939283018282801561062357602002820191906000526020600020905b81546001600160a01b03168152600190910190602001808311610605575b50505050509050919050565b6000600454831061063f57600080fd5b6000838152600c6020526040812054900361065c575060006106a7565b6000838152600c6020908152604080832054600f83528184206001600160a01b03871685529092529091205461069a90670de0b6b3a764000061111e565b6106a49190611135565b90505b92915050565b6001546001600160a01b031633146106c457600080fd5b6000828152600d60209081526040808320839055858352600b909152902054829003610758576000838152600b602090815260408083208490558383526008825280832054600d8352928190205481516001600160a01b0390941684529183018490528201527f542a9d62177daded9da208bba2341f74186354f8d3c20218ab13d83bb1f80c049060600160405180910390a15b60408051848152602081018490527fc1bfdc0a6b8d533c90403e3de9938f0bae1af28a826ab7200d83ab7ce517ed7f910160405180910390a1505050565b606060038054806020026020016040519081016040528092919081815260200182805480156107ee57602002820191906000526020600020905b81546001600160a01b031681526001909101906020018083116107d0575b5050505050905090565b6002546001600160a01b0316331461080f57600080fd5b6005546000908152600d602081815260408084208590556004548452600b82528084205484529190529020548111156108b357600554600480546000908152600b602090815260408083208590559254825260088152908290205482516001600160a01b0390911681529081019290925281018290527f542a9d62177daded9da208bba2341f74186354f8d3c20218ab13d83bb1f80c049060600160405180910390a15b600580549060006108c383611157565b909155505060045460055460408051928352602083019190915281018290527fb4b2fdfdbe12ad53560fc30eec375604ca33dd5e93bca17b05335b8ae08966009060600160405180910390a1600554600081815260086020526040908190205490517f661f419a1c9ac2ee2f4ba992e9662137765cc1aefa3f568792538b3168218a8a926105b89233926001600160a01b0390911691906110a8565b60055460035460009161097191611170565b905090565b6007805490600061098683611157565b90915550506004546000908152600e6020908152604080832033845290915290205415610a045760405162461bcd60e51b815260206004820152602160248201527f53656e64657220616c72656164792070697463686564207468697320726f756e6044820152601960fa1b60648201526084015b60405180910390fd5b6000610a0e61095f565b610a1990600261126a565b600654610a26919061111e565b6010546040516323b872dd60e01b81529192506001600160a01b0316906323b872dd90610a5b903390309086906004016110a8565b6020604051808303816000875af1158015610a7a573d6000803e3d6000fd5b505050506040513d601f19601f82011682018060405250810190610a9e91906110cc565b610aea5760405162461bcd60e51b815260206004820152601a60248201527f496e73756666696369656e742066656520616c6c6f77616e636500000000000060448201526064016109fb565b6004546000908152600a6020526040902054610b0790829061110b565b600480546000908152600a60209081526040808320949094556003805484548452600e8352858420338086529084528685208290559084526008835285842080546001600160a01b038a166001600160a01b031991821681179092558354600181018555958490527fc2575a0e9e593c00f959f8c92f12db2869c3395a3b0502d05e2516446f71f85b9095018054909516821790945560075494549154865191825292810193909352938201929092526060810192909252608082015260a081018290527f81764f4121ed902201345d8407be9a5f8054d9dc7f10ba4852738d8d48bb87059060c00160405180910390a16005546000908152600860205260409020546001600160a01b03808416911603610c5d576003546040517f661f419a1c9ac2ee2f4ba992e9662137765cc1aefa3f568792538b3168218a8a91610c5191339186916110a8565b60405180910390a15050565b6003546040517f8617a5e73984e6a72741fdb025405a87426f045cc6b645995fa753740320fa8a91610c5191339186916110a8565b60038181548110610ca257600080fd5b6000918252602090912001546001600160a01b0316905081565b6001546001600160a01b03163314610cd357600080fd5b6004546000908152600a6020526040812054610cf190600290611135565b60105460015460405163a9059cbb60e01b81526001600160a01b03918216600482015260248101849052929350169063a9059cbb906044016020604051808303816000875af1158015610d48573d6000803e3d6000fd5b505050506040513d601f19601f82011682018060405250810190610d6c91906110cc565b610d7557600080fd5b6010546040516370a0823160e01b81523060048201526000916001600160a01b0316906370a0823190602401602060405180830381865afa158015610dbe573d6000803e3d6000fd5b505050506040513d601f19601f82011682018060405250810190610de29190611276565b60105460005460405163a9059cbb60e01b81526001600160a01b03918216600482015260248101849052929350169063a9059cbb906044016020604051808303816000875af1158015610e39573d6000803e3d6000fd5b505050506040513d601f19601f82011682018060405250810190610e5d91906110cc565b610e6657600080fd5b60008054600480548352600b6020908152604080852054855260089091529283902054925163646ec89560e01b81526001600160a01b03938416918101919091526024810184905291169063646ec89590604401600060405180830381600087803b158015610ed457600080fd5b505af1158015610ee8573d6000803e3d6000fd5b505060045460408051918252602082018590527fc67dda8e11f1aa941c7e74466b1859a07a32f46aaf641d29b83be348424d93cd935001905060405180910390a1600160046000828254610f3c919061110b565b90915550505050565b6001546001600160a01b03163314610f5c57600080fd5b601180546001600160a01b039384166001600160a01b03199182161790915560008054929093169116179055565b600060208284031215610f9c57600080fd5b5035919050565b602080825282518282018190526000918401906040840190835b81811015610fe45783516001600160a01b0316835260209384019390920191600101610fbd565b509095945050505050565b80356001600160a01b038116811461100657600080fd5b919050565b6000806040838503121561101e57600080fd5b8235915061102e60208401610fef565b90509250929050565b60008060006060848603121561104c57600080fd5b505081359360208301359350604090920135919050565b60006020828403121561107557600080fd5b6106a482610fef565b6000806040838503121561109157600080fd5b61109a83610fef565b915061102e60208401610fef565b6001600160a01b039384168152919092166020820152604081019190915260600190565b6000602082840312156110de57600080fd5b815180151581146110ee57600080fd5b9392505050565b634e487b7160e01b600052601160045260246000fd5b808201808211156106a7576106a76110f5565b80820281158282048414176106a7576106a76110f5565b60008261115257634e487b7160e01b600052601260045260246000fd5b500490565b600060018201611169576111696110f5565b5060010190565b818103818111156106a7576106a76110f5565b6001815b60018411156111be578085048111156111a2576111a26110f5565b60018416156111b057908102905b60019390931c928002611187565b935093915050565b6000826111d5575060016106a7565b816111e2575060006106a7565b81600181146111f857600281146112025761121e565b60019150506106a7565b60ff841115611213576112136110f5565b50506001821b6106a7565b5060208310610133831016604e8410600b8410161715611241575081810a6106a7565b61124e6000198484611183565b8060001904821115611262576112626110f5565b029392505050565b60006106a483836111c6565b60006020828403121561128857600080fd5b505191905056fea26469706673582212207c5cbf01925d3b97527c0831afb50f6aebb53661fdf67e8cc5d4979bddd4730864736f6c634300081c0033",
  "linkReferences": {},
  "deployedLinkReferences": {}
}