{
  "_format": "hh-sol-artifact-1",
  "contractName": "Funding",
  "sourceName": "contracts/Funding.sol",
  "abi": [
    {
      "inputs": [
        {
          "internalType": "address",
          "name": "_sebu",
          "type": "address"
        }
      ],
      "stateMutability": "nonpayable",
      "type": "constructor"
    },
    {
      "inputs": [],
      "name": "auctionTime",
      "outputs": [
        {
          "internalType": "uint256",
          "name": "",
          "type": "uint256"
        }
      ],
      "stateMutability": "view",
      "type": "function"
    },
    {
      "inputs": [],
      "name": "closeAuction",
      "outputs": [],
      "stateMutability": "nonpayable",
      "type": "function"
    },
    {
      "inputs": [],
      "name": "currentRound",
      "outputs": [
        {
          "internalType": "uint256",
          "name": "",
          "type": "uint256"
        }
      ],
      "stateMutability": "view",
      "type": "function"
    },
    {
      "inputs": [],
      "name": "owner",
      "outputs": [
        {
          "internalType": "address",
          "name": "",
          "type": "address"
        }
      ],
      "stateMutability": "view",
      "type": "function"
    },
    {
      "inputs": [
        {
          "internalType": "uint256",
          "name": "_round",
          "type": "uint256"
        },
        {
          "internalType": "uint256",
          "name": "_amount",
          "type": "uint256"
        }
      ],
      "name": "placeBid",
      "outputs": [],
      "stateMutability": "nonpayable",
      "type": "function"
    },
    {
      "inputs": [],
      "name": "portfolio",
      "outputs": [
        {
          "internalType": "address",
          "name": "",
          "type": "address"
        }
      ],
      "stateMutability": "view",
      "type": "function"
    },
    {
      "inputs": [
        {
          "internalType": "uint256",
          "name": "",
          "type": "uint256"
        }
      ],
      "name": "roundAmount",
      "outputs": [
        {
          "internalType": "uint256",
          "name": "",
          "type": "uint256"
        }
      ],
      "stateMutability": "view",
      "type": "function"
    },
    {
      "inputs": [
        {
          "internalType": "uint256",
          "name": "",
          "type": "uint256"
        }
      ],
      "name": "roundIsClosed",
      "outputs": [
        {
          "internalType": "bool",
          "name": "",
          "type": "bool"
        }
      ],
      "stateMutability": "view",
      "type": "function"
    },
    {
      "inputs": [
        {
          "internalType": "uint256",
          "name": "",
          "type": "uint256"
        }
      ],
      "name": "roundStartTime",
      "outputs": [
        {
          "internalType": "uint256",
          "name": "",
          "type": "uint256"
        }
      ],
      "stateMutability": "view",
      "type": "function"
    },
    {
      "inputs": [
        {
          "internalType": "uint256",
          "name": "",
          "type": "uint256"
        }
      ],
      "name": "roundToken",
      "outputs": [
        {
          "internalType": "address",
          "name": "",
          "type": "address"
        }
      ],
      "stateMutability": "view",
      "type": "function"
    },
    {
      "inputs": [
        {
          "internalType": "uint256",
          "name": "_round",
          "type": "uint256"
        }
      ],
      "name": "roundTopBid",
      "outputs": [
        {
          "internalType": "uint256",
          "name": "_bid",
          "type": "uint256"
        }
      ],
      "stateMutability": "view",
      "type": "function"
    },
    {
      "inputs": [
        {
          "internalType": "uint256",
          "name": "",
          "type": "uint256"
        }
      ],
      "name": "roundTopBidder",
      "outputs": [
        {
          "internalType": "address",
          "name": "",
          "type": "address"
        }
      ],
      "stateMutability": "view",
      "type": "function"
    },
    {
      "inputs": [],
      "name": "sebu",
      "outputs": [
        {
          "internalType": "address",
          "name": "",
          "type": "address"
        }
      ],
      "stateMutability": "view",
      "type": "function"
    },
    {
      "inputs": [
        {
          "internalType": "address",
          "name": "_portfolio",
          "type": "address"
        }
      ],
      "name": "setPortfolio",
      "outputs": [],
      "stateMutability": "nonpayable",
      "type": "function"
    },
    {
      "inputs": [
        {
          "internalType": "address",
          "name": "_tokenToBuy",
          "type": "address"
        },
        {
          "internalType": "uint256",
          "name": "_amount",
          "type": "uint256"
        }
      ],
      "name": "startAuction",
      "outputs": [],
      "stateMutability": "nonpayable",
      "type": "function"
    }
  ],
  "bytecode": "0x6080604052348015600f57600080fd5b506040516109dd3803806109dd833981016040819052602c916059565b600280546001600160a01b039092166001600160a01b031992831617905560038054909116331790556087565b600060208284031215606a57600080fd5b81516001600160a01b0381168114608057600080fd5b9392505050565b610947806100966000396000f3fe608060405234801561001057600080fd5b50600436106100f55760003560e01c80634a539ca811610097578063875a316811610066578063875a3168146102495780638a19c8bc1461025c5780638da5cb5b14610265578063c137a60f1461027857600080fd5b80634a539ca8146101e357806357c90de5146102035780635c0caf7b14610216578063646ec8951461023657600080fd5b806316862e77116100d357806316862e771461015e57806316ede0161461019f578063378252f2146101b2578063399f2cf4146101ba57600080fd5b8063044337ca146100fa57806311c951ee1461010f578063155f586d14610147575b600080fd5b61010d6101083660046107ff565b610298565b005b61013261011d366004610823565b60096020526000908152604090205460ff1681565b60405190151581526020015b60405180910390f35b61015061384081565b60405190815260200161013e565b61018761016c366004610823565b6005602052600090815260409020546001600160a01b031681565b6040516001600160a01b03909116815260200161013e565b600054610187906001600160a01b031681565b61010d6102e7565b6101876101c8366004610823565b6008602052600090815260409020546001600160a01b031681565b6101506101f1366004610823565b60046020526000908152604090205481565b61010d61021136600461083c565b61057c565b610150610224366004610823565b60066020526000908152604090205481565b61010d61024436600461085e565b610745565b600254610187906001600160a01b031681565b61015060015481565b600354610187906001600160a01b031681565b610150610286366004610823565b60076020526000908152604090205481565b6003546001600160a01b031633146102af57600080fd5b6000546001600160a01b0316156102c557600080fd5b600080546001600160a01b0319166001600160a01b0392909216919091179055565b60015460009081526009602052604090205460ff161561030657600080fd5b6001546000908152600760205260409020546138409061032690426108a0565b1161033057600080fd5b600180546000908152600960209081526040808320805460ff1916851790558254935483526008825280832054600492839052928190205490516312e1125560e21b81526001600160a01b03938416928101929092526024820152911690634b84495490604401600060405180830381600087803b1580156103b157600080fd5b505af11580156103c5573d6000803e3d6000fd5b505060015460009081526008602090815260408083205483546004938490529382902054915163a9059cbb60e01b81526001600160a01b03918216965063a9059cbb955061042b9490911692016001600160a01b03929092168252602082015260400190565b6020604051808303816000875af115801561044a573d6000803e3d6000fd5b505050506040513d601f19601f8201168201806040525081019061046e91906108b9565b50600260009054906101000a90046001600160a01b03166001600160a01b0316622703a26040518163ffffffff1660e01b8152600401602060405180830381865afa1580156104c1573d6000803e3d6000fd5b505050506040513d601f19601f820116820180604052508101906104e591906108db565b60015460009081526005602090815260408083205460069092529182902054915163a9059cbb60e01b81526001600160a01b0391821660048201526024810192909252919091169063a9059cbb906044016020604051808303816000875af1158015610555573d6000803e3d6000fd5b505050506040513d601f19601f8201168201806040525081019061057991906108b9565b50565b600154821461058a57600080fd5b60015460009081526009602052604090205460ff16156105a957600080fd5b60015460009081526004602052604090205481116105c657600080fd5b6001546000908152600460205260409020541561067e5760015460009081526008602090815260408083205460058352818420546004938490529382902054915163a9059cbb60e01b81526001600160a01b03948516938101939093526024830191909152919091169063a9059cbb906044016020604051808303816000875af1158015610658573d6000803e3d6000fd5b505050506040513d601f19601f8201168201806040525081019061067c91906108b9565b505b600180546000908152600460208181526040808420869055845484526005825280842080546001600160a01b03191633908117909155945484526008909152918290205491516323b872dd60e01b815290810192909252306024830152604482018390526001600160a01b0316906323b872dd906064016020604051808303816000875af1158015610714573d6000803e3d6000fd5b505050506040513d601f19601f8201168201806040525081019061073891906108b9565b61074157600080fd5b5050565b6002546001600160a01b0316331461075c57600080fd5b6001805490600061076c836108f8565b909155505060018054600090815260066020908152604080832094909455825482526008815283822080546001600160a01b03199081166001600160a01b0397881617909155835483526007825284832042905583548352600482528483208390556003549354835260059091529290208054919093169116179055565b6001600160a01b038116811461057957600080fd5b60006020828403121561081157600080fd5b813561081c816107ea565b9392505050565b60006020828403121561083557600080fd5b5035919050565b6000806040838503121561084f57600080fd5b50508035926020909101359150565b6000806040838503121561087157600080fd5b823561087c816107ea565b946020939093013593505050565b634e487b7160e01b600052601160045260246000fd5b818103818111156108b3576108b361088a565b92915050565b6000602082840312156108cb57600080fd5b8151801515811461081c57600080fd5b6000602082840312156108ed57600080fd5b815161081c816107ea565b60006001820161090a5761090a61088a565b506001019056fea26469706673582212201e2992ad674cb3ad9bb62cd1b9472356e866faac66e57f7d782d0e56f8100c7064736f6c634300081c0033",
  "linkReferences": {},
  "deployedLinkReferences": {}
}