{
  "_format": "hh-sol-artifact-1",
  "contractName": "Portfolio",
  "sourceName": "contracts/Portfolio.sol",
  "abi": [
    {
      "inputs": [
        {
          "internalType": "string",
          "name": "_name",
          "type": "string"
        },
        {
          "internalType": "string",
          "name": "_symbol",
          "type": "string"
        },
        {
          "internalType": "address",
          "name": "_sebu",
          "type": "address"
        }
      ],
      "stateMutability": "nonpayable",
      "type": "constructor"
    },
    {
      "anonymous": false,
      "inputs": [
        {
          "indexed": true,
          "internalType": "address",
          "name": "_src",
          "type": "address"
        },
        {
          "indexed": true,
          "internalType": "address",
          "name": "_dst",
          "type": "address"
        },
        {
          "indexed": false,
          "internalType": "uint256",
          "name": "_amt",
          "type": "uint256"
        }
      ],
      "name": "Approval",
      "type": "event"
    },
    {
      "anonymous": false,
      "inputs": [
        {
          "indexed": false,
          "internalType": "uint256",
          "name": "_round",
          "type": "uint256"
        },
        {
          "indexed": false,
          "internalType": "address[]",
          "name": "_to",
          "type": "address[]"
        }
      ],
      "name": "MintLPShares",
      "type": "event"
    },
    {
      "anonymous": false,
      "inputs": [
        {
          "indexed": false,
          "internalType": "address",
          "name": "_token",
          "type": "address"
        },
        {
          "indexed": false,
          "internalType": "uint256",
          "name": "_amount",
          "type": "uint256"
        }
      ],
      "name": "NewPosition",
      "type": "event"
    },
    {
      "anonymous": false,
      "inputs": [
        {
          "indexed": true,
          "internalType": "address",
          "name": "_src",
          "type": "address"
        },
        {
          "indexed": true,
          "internalType": "address",
          "name": "_dst",
          "type": "address"
        },
        {
          "indexed": false,
          "internalType": "uint256",
          "name": "_amt",
          "type": "uint256"
        }
      ],
      "name": "Transfer",
      "type": "event"
    },
    {
      "anonymous": false,
      "inputs": [
        {
          "indexed": false,
          "internalType": "uint256",
          "name": "_amount",
          "type": "uint256"
        },
        {
          "indexed": false,
          "internalType": "address[]",
          "name": "_tokens",
          "type": "address[]"
        }
      ],
      "name": "Withdraw",
      "type": "event"
    },
    {
      "inputs": [
        {
          "internalType": "address",
          "name": "_src",
          "type": "address"
        },
        {
          "internalType": "address",
          "name": "_dst",
          "type": "address"
        }
      ],
      "name": "allowance",
      "outputs": [
        {
          "internalType": "uint256",
          "name": "",
          "type": "uint256"
        }
      ],
      "stateMutability": "view",
      "type": "function"
    },
    {
      "inputs": [
        {
          "internalType": "address",
          "name": "_spender",
          "type": "address"
        },
        {
          "internalType": "uint256",
          "name": "_amount",
          "type": "uint256"
        }
      ],
      "name": "approve",
      "outputs": [
        {
          "internalType": "bool",
          "name": "",
          "type": "bool"
        }
      ],
      "stateMutability": "nonpayable",
      "type": "function"
    },
    {
      "inputs": [
        {
          "internalType": "address",
          "name": "_user",
          "type": "address"
        }
      ],
      "name": "balanceOf",
      "outputs": [
        {
          "internalType": "uint256",
          "name": "",
          "type": "uint256"
        }
      ],
      "stateMutability": "view",
      "type": "function"
    },
    {
      "inputs": [
        {
          "internalType": "address[]",
          "name": "_tokens",
          "type": "address[]"
        }
      ],
      "name": "claim",
      "outputs": [],
      "stateMutability": "nonpayable",
      "type": "function"
    },
    {
      "inputs": [],
      "name": "currentRound",
      "outputs": [
        {
          "internalType": "uint256",
          "name": "",
          "type": "uint256"
        }
      ],
      "stateMutability": "view",
      "type": "function"
    },
    {
      "inputs": [],
      "name": "decimals",
      "outputs": [
        {
          "internalType": "uint8",
          "name": "",
          "type": "uint8"
        }
      ],
      "stateMutability": "pure",
      "type": "function"
    },
    {
      "inputs": [],
      "name": "getListOfTokens",
      "outputs": [
        {
          "internalType": "address[]",
          "name": "",
          "type": "address[]"
        }
      ],
      "stateMutability": "view",
      "type": "function"
    },
    {
      "inputs": [
        {
          "internalType": "address",
          "name": "_token",
          "type": "address"
        }
      ],
      "name": "getUnclaimedTokenBalance",
      "outputs": [
        {
          "internalType": "uint256",
          "name": "",
          "type": "uint256"
        }
      ],
      "stateMutability": "view",
      "type": "function"
    },
    {
      "inputs": [
        {
          "internalType": "uint256",
          "name": "",
          "type": "uint256"
        }
      ],
      "name": "listOfTokens",
      "outputs": [
        {
          "internalType": "address",
          "name": "",
          "type": "address"
        }
      ],
      "stateMutability": "view",
      "type": "function"
    },
    {
      "inputs": [],
      "name": "mintAmount",
      "outputs": [
        {
          "internalType": "uint256",
          "name": "",
          "type": "uint256"
        }
      ],
      "stateMutability": "view",
      "type": "function"
    },
    {
      "inputs": [
        {
          "internalType": "uint256",
          "name": "_round",
          "type": "uint256"
        },
        {
          "internalType": "address[]",
          "name": "_to",
          "type": "address[]"
        }
      ],
      "name": "mintLPShares",
      "outputs": [],
      "stateMutability": "nonpayable",
      "type": "function"
    },
    {
      "inputs": [],
      "name": "name",
      "outputs": [
        {
          "internalType": "string",
          "name": "",
          "type": "string"
        }
      ],
      "stateMutability": "view",
      "type": "function"
    },
    {
      "inputs": [
        {
          "internalType": "address",
          "name": "_token",
          "type": "address"
        },
        {
          "internalType": "uint256",
          "name": "_amount",
          "type": "uint256"
        }
      ],
      "name": "newPosition",
      "outputs": [],
      "stateMutability": "nonpayable",
      "type": "function"
    },
    {
      "inputs": [
        {
          "internalType": "address",
          "name": "",
          "type": "address"
        }
      ],
      "name": "portfolioBalance",
      "outputs": [
        {
          "internalType": "uint256",
          "name": "",
          "type": "uint256"
        }
      ],
      "stateMutability": "view",
      "type": "function"
    },
    {
      "inputs": [
        {
          "internalType": "uint256",
          "name": "",
          "type": "uint256"
        },
        {
          "internalType": "address",
          "name": "",
          "type": "address"
        }
      ],
      "name": "roundToMinted",
      "outputs": [
        {
          "internalType": "bool",
          "name": "",
          "type": "bool"
        }
      ],
      "stateMutability": "view",
      "type": "function"
    },
    {
      "inputs": [],
      "name": "sebu",
      "outputs": [
        {
          "internalType": "contract ISebu",
          "name": "",
          "type": "address"
        }
      ],
      "stateMutability": "view",
      "type": "function"
    },
    {
      "inputs": [],
      "name": "symbol",
      "outputs": [
        {
          "internalType": "string",
          "name": "",
          "type": "string"
        }
      ],
      "stateMutability": "view",
      "type": "function"
    },
    {
      "inputs": [],
      "name": "totalLPshares",
      "outputs": [
        {
          "internalType": "uint256",
          "name": "",
          "type": "uint256"
        }
      ],
      "stateMutability": "view",
      "type": "function"
    },
    {
      "inputs": [],
      "name": "totalSupply",
      "outputs": [
        {
          "internalType": "uint256",
          "name": "",
          "type": "uint256"
        }
      ],
      "stateMutability": "view",
      "type": "function"
    },
    {
      "inputs": [
        {
          "internalType": "address",
          "name": "_to",
          "type": "address"
        },
        {
          "internalType": "uint256",
          "name": "_amount",
          "type": "uint256"
        }
      ],
      "name": "transfer",
      "outputs": [
        {
          "internalType": "bool",
          "name": "",
          "type": "bool"
        }
      ],
      "stateMutability": "nonpayable",
      "type": "function"
    },
    {
      "inputs": [
        {
          "internalType": "address",
          "name": "_from",
          "type": "address"
        },
        {
          "internalType": "address",
          "name": "_to",
          "type": "address"
        },
        {
          "internalType": "uint256",
          "name": "_amount",
          "type": "uint256"
        }
      ],
      "name": "transferFrom",
      "outputs": [
        {
          "internalType": "bool",
          "name": "",
          "type": "bool"
        }
      ],
      "stateMutability": "nonpayable",
      "type": "function"
    },
    {
      "inputs": [
        {
          "internalType": "uint256",
          "name": "_amount",
          "type": "uint256"
        },
        {
          "internalType": "address[]",
          "name": "_tokens",
          "type": "address[]"
        }
      ],
      "name": "withdraw",
      "outputs": [],
      "stateMutability": "nonpayable",
      "type": "function"
    }
  ],
  "bytecode": "0x608060405268056bc75e2d6310000060065534801561001d57600080fd5b506040516119a73803806119a783398101604081905261003c91610140565b8282600061004a8382610254565b5060016100578282610254565b5050600980546001600160a01b0319166001600160a01b0393909316929092179091555050600160085550610312565b634e487b7160e01b600052604160045260246000fd5b600082601f8301126100ae57600080fd5b81516001600160401b038111156100c7576100c7610087565b604051601f8201601f19908116603f011681016001600160401b03811182821017156100f5576100f5610087565b60405281815283820160200185101561010d57600080fd5b60005b8281101561012c57602081860181015183830182015201610110565b506000918101602001919091529392505050565b60008060006060848603121561015557600080fd5b83516001600160401b0381111561016b57600080fd5b6101778682870161009d565b602086015190945090506001600160401b0381111561019557600080fd5b6101a18682870161009d565b604086015190935090506001600160a01b03811681146101c057600080fd5b809150509250925092565b600181811c908216806101df57607f821691505b6020821081036101ff57634e487b7160e01b600052602260045260246000fd5b50919050565b601f82111561024f57806000526020600020601f840160051c8101602085101561022c5750805b601f840160051c820191505b8181101561024c5760008155600101610238565b50505b505050565b81516001600160401b0381111561026d5761026d610087565b6102818161027b84546101cb565b84610205565b6020601f8211600181146102b5576000831561029d5750848201515b600019600385901b1c1916600184901b17845561024c565b600084815260208120601f198516915b828110156102e557878501518255602094850194600190920191016102c5565b50848210156103035786840151600019600387901b60f8161c191681555b50505050600190811b01905550565b611686806103216000396000f3fe608060405234801561001057600080fd5b50600436106101425760003560e01c8063875a3168116100b8578063a0d425c51161007c578063a0d425c5146102a0578063a9059cbb146102c0578063a98cd315146102d3578063b2d38186146102e6578063dd62ed3e146102ef578063fd1e79271461032857600080fd5b8063875a3168146102565780638a19c8bc1461026957806395d89b411461027257806399eca69f1461027a5780639ec52d141461028d57600080fd5b8063313ce5671161010a578063313ce567146101d8578063318d9e5d146101e75780634b844954146101fc5780635a2bcc181461020f57806370a082311461021857806374e4c3591461024157600080fd5b806306fdde0314610147578063095ea7b31461016557806318160ddd1461018857806323b872dd1461019a578063256a1a03146101ad575b600080fd5b61014f610356565b60405161015c91906111eb565b60405180910390f35b610178610173366004611261565b6103e8565b604051901515815260200161015c565b6002545b60405190815260200161015c565b6101786101a836600461128d565b610455565b6101c06101bb3660046112ce565b610580565b6040516001600160a01b03909116815260200161015c565b6040516012815260200161015c565b6101fa6101f53660046113a3565b6105aa565b005b6101fa61020a366004611261565b61095a565b61018c60065481565b61018c6102263660046113e0565b6001600160a01b031660009081526003602052604090205490565b610249610b0b565b60405161015c9190611449565b6009546101c0906001600160a01b031681565b61018c60085481565b61014f610b6c565b6101fa61028836600461145c565b610b7b565b6101fa61029b36600461145c565b610d7a565b61018c6102ae3660046113e0565b600a6020526000908152604090205481565b6101786102ce366004611261565b610fd2565b61018c6102e13660046113e0565b610fe8565b61018c60075481565b61018c6102fd3660046114a3565b6001600160a01b03918216600090815260046020908152604080832093909416825291909152205490565b6101786103363660046114dc565b600c60209081526000928352604080842090915290825290205460ff1681565b60606000805461036590611501565b80601f016020809104026020016040519081016040528092919081815260200182805461039190611501565b80156103de5780601f106103b3576101008083540402835291602001916103de565b820191906000526020600020905b8154815290600101906020018083116103c157829003601f168201915b5050505050905090565b3360008181526004602090815260408083206001600160a01b038716808552925280832085905551919290917f8c5be1e5ebec7d5bd14f71427d1e84f3dd0314c0f7b2291e5b200ac8c7c3b925906104439086815260200190565b60405180910390a35060015b92915050565b6000336001600160a01b038516148061049157506001600160a01b03841660009081526004602090815260408083203384529091529020548211155b6104d15760405162461bcd60e51b815260206004820152600c60248201526b1b9bdd08185c1c1c9bdd995960a21b60448201526064015b60405180910390fd5b6104dc848484611016565b336001600160a01b03851614610576576001600160a01b038416600090815260046020908152604080832033845290915290205461051b908390611551565b6001600160a01b038516600081815260046020908152604080832033808552908352928190208590555193845290927f8c5be1e5ebec7d5bd14f71427d1e84f3dd0314c0f7b2291e5b200ac8c7c3b925910160405180910390a35b5060019392505050565b6005818154811061059057600080fd5b6000918252602090912001546001600160a01b0316905081565b6000805b825181101561095557600e60008483815181106105cd576105cd611564565b60200260200101516001600160a01b03166001600160a01b031681526020019081526020016000206000336001600160a01b03166001600160a01b0316815260200190815260200160002054915082818151811061062d5761062d611564565b60209081029190910101516040516370a0823160e01b81523060048201526001600160a01b03909116906370a0823190602401602060405180830381865afa15801561067d573d6000803e3d6000fd5b505050506040513d601f19601f820116820180604052508101906106a1919061157a565b821115610731578281815181106106ba576106ba611564565b60209081029190910101516040516370a0823160e01b81523060048201526001600160a01b03909116906370a0823190602401602060405180830381865afa15801561070a573d6000803e3d6000fd5b505050506040513d601f19601f8201168201806040525081019061072e919061157a565b91505b6000821161073e57600080fd5b81600a600085848151811061075557610755611564565b60200260200101516001600160a01b03166001600160a01b03168152602001908152602001600020546107889190611551565b600a600085848151811061079e5761079e611564565b60200260200101516001600160a01b03166001600160a01b03168152602001908152602001600020819055506000600e60008584815181106107e2576107e2611564565b60200260200101516001600160a01b03166001600160a01b031681526020019081526020016000206000336001600160a01b03166001600160a01b031681526020019081526020016000208190555081600b600085848151811061084857610848611564565b60200260200101516001600160a01b03166001600160a01b031681526020019081526020016000205461087b9190611551565b600b600085848151811061089157610891611564565b60200260200101516001600160a01b03166001600160a01b03168152602001908152602001600020819055508281815181106108cf576108cf611564565b602090810291909101015160405163a9059cbb60e01b8152336004820152602481018490526001600160a01b039091169063a9059cbb906044016020604051808303816000875af1158015610928573d6000803e3d6000fd5b505050506040513d601f19601f8201168201806040525081019061094c9190611593565b506001016105ae565b505050565b600960009054906101000a90046001600160a01b03166001600160a01b031663995df76c6040518163ffffffff1660e01b8152600401602060405180830381865afa1580156109ad573d6000803e3d6000fd5b505050506040513d601f19601f820116820180604052508101906109d191906115b5565b6001600160a01b0316336001600160a01b0316146109ee57600080fd5b6001600160a01b0382166000908152600a60205260408120549003610a5957600580546001810182556000919091527f036b6384b5eca791c62761152d0c79bb0604c104a5fb6f4eb0703f3154bb3db00180546001600160a01b0319166001600160a01b0384161790555b60065460076000828254610a6d91906115d2565b90915550506001600160a01b0382166000908152600a6020526040902054610a969082906115d2565b6001600160a01b0383166000908152600a60205260408120919091556008805491610ac0836115e5565b9091555050604080516001600160a01b0384168152602081018390527fd4c1b45f1ec09667398d1c934903dcd7200052bb709fc1c29089fab30717b302910160405180910390a15050565b606060058054806020026020016040519081016040528092919081815260200182805480156103de57602002820191906000526020600020905b81546001600160a01b03168152600190910190602001808311610b45575050505050905090565b60606001805461036590611501565b60008211610b8857600080fd5b610b9233836110cb565b600754600090610baa84670de0b6b3a76400006115fe565b610bb49190611615565b90508260076000828254610bc89190611551565b909155506000905080805b600554811015610d3957600b6000868381518110610bf357610bf3611564565b60200260200101516001600160a01b03166001600160a01b031681526020019081526020016000205491508382600a6000888581518110610c3657610c36611564565b60200260200101516001600160a01b03166001600160a01b0316815260200190815260200160002054610c699190611551565b610c7391906115fe565b925060008311610c8257600080fd5b610c94670de0b6b3a764000084611615565b600e6000878481518110610caa57610caa611564565b6020908102919091018101516001600160a01b031682528181019290925260409081016000908120338252909252902055610ced670de0b6b3a764000084611615565b610cf790836115d2565b600b6000878481518110610d0d57610d0d611564565b6020908102919091018101516001600160a01b0316825281019190915260400160002055600101610bd3565b507f7c61661a6fb8306d329747ed3d32b25f87147d77a81f3f0c519ed9fd57ef5ab48585604051610d6b929190611637565b60405180910390a15050505050565b60006008548310610d8a57600080fd5b60005b8251811015610f9357600c60008581526020019081526020016000206000848381518110610dbd57610dbd611564565b6020908102919091018101516001600160a01b031682528101919091526040016000205460ff1615610e315760405162461bcd60e51b815260206004820152601960248201527f616c7265616479206d696e746564207468697320726f756e640000000000000060448201526064016104c8565b6006546009548451670de0b6b3a764000092916001600160a01b03169063528eb156908890889087908110610e6857610e68611564565b60200260200101516040518363ffffffff1660e01b8152600401610e9f9291909182526001600160a01b0316602082015260400190565b602060405180830381865afa158015610ebc573d6000803e3d6000fd5b505050506040513d601f19601f82011682018060405250810190610ee0919061157a565b610eea91906115fe565b610ef49190611615565b915060008211610f0357600080fd5b6000848152600c60205260408120845160019290869085908110610f2957610f29611564565b60200260200101516001600160a01b03166001600160a01b0316815260200190815260200160002060006101000a81548160ff021916908315150217905550610f8b838281518110610f7d57610f7d611564565b60200260200101518361115f565b600101610d8d565b507f2949432bd5c17022a021926c92d348a6de4c45a309b3118383c59bc99c12f58f8383604051610fc5929190611637565b60405180910390a1505050565b6000610fdf338484611016565b50600192915050565b6001600160a01b0381166000908152600b6020908152604080832054600a90925282205461044f9190611551565b6001600160a01b03831660009081526003602052604090205461103a908290611551565b6001600160a01b03808516600090815260036020526040808220939093559084168152205461106a9082906115d2565b6001600160a01b0380841660008181526003602052604090819020939093559151908516907fddf252ad1be2c89b69c2b068fc378daa952ba7f163c4a11628f55a4df523b3ef906110be9085815260200190565b60405180910390a3505050565b6001600160a01b0382166000908152600360205260409020546110ef908290611551565b6001600160a01b038316600090815260036020526040902055600254611116908290611551565b6002556040518181526000906001600160a01b038416907fddf252ad1be2c89b69c2b068fc378daa952ba7f163c4a11628f55a4df523b3ef906020015b60405180910390a35050565b6001600160a01b0382166000908152600360205260409020546111839082906115d2565b6001600160a01b0383166000908152600360205260409020556002546111aa9082906115d2565b6002556040518181526001600160a01b038316906000907fddf252ad1be2c89b69c2b068fc378daa952ba7f163c4a11628f55a4df523b3ef90602001611153565b602081526000825180602084015260005b8181101561121957602081860181015160408684010152016111fc565b506000604082850101526040601f19601f83011684010191505092915050565b6001600160a01b038116811461124e57600080fd5b50565b803561125c81611239565b919050565b6000806040838503121561127457600080fd5b823561127f81611239565b946020939093013593505050565b6000806000606084860312156112a257600080fd5b83356112ad81611239565b925060208401356112bd81611239565b929592945050506040919091013590565b6000602082840312156112e057600080fd5b5035919050565b634e487b7160e01b600052604160045260246000fd5b600082601f83011261130e57600080fd5b813567ffffffffffffffff811115611328576113286112e7565b8060051b604051601f19603f830116810181811067ffffffffffffffff82111715611355576113556112e7565b60405291825260208185018101929081018684111561137357600080fd5b6020860192505b838310156113995761138b83611251565b81526020928301920161137a565b5095945050505050565b6000602082840312156113b557600080fd5b813567ffffffffffffffff8111156113cc57600080fd5b6113d8848285016112fd565b949350505050565b6000602082840312156113f257600080fd5b81356113fd81611239565b9392505050565b600081518084526020840193506020830160005b8281101561143f5781516001600160a01b0316865260209586019590910190600101611418565b5093949350505050565b6020815260006113fd6020830184611404565b6000806040838503121561146f57600080fd5b82359150602083013567ffffffffffffffff81111561148d57600080fd5b611499858286016112fd565b9150509250929050565b600080604083850312156114b657600080fd5b82356114c181611239565b915060208301356114d181611239565b809150509250929050565b600080604083850312156114ef57600080fd5b8235915060208301356114d181611239565b600181811c9082168061151557607f821691505b60208210810361153557634e487b7160e01b600052602260045260246000fd5b50919050565b634e487b7160e01b600052601160045260246000fd5b8181038181111561044f5761044f61153b565b634e487b7160e01b600052603260045260246000fd5b60006020828403121561158c57600080fd5b5051919050565b6000602082840312156115a557600080fd5b815180151581146113fd57600080fd5b6000602082840312156115c757600080fd5b81516113fd81611239565b8082018082111561044f5761044f61153b565b6000600182016115f7576115f761153b565b5060010190565b808202811582820484141761044f5761044f61153b565b60008261163257634e487b7160e01b600052601260045260246000fd5b500490565b8281526040602082015260006113d8604083018461140456fea2646970667358221220051150d109f28419515a7f1330ff9c137583335021d481ae8af4556de54c9cfd64736f6c634300081c0033",
  "linkReferences": {},
  "deployedLinkReferences": {}
}